:020000040800F2
:10000000903500204D020008F73F0008C93800086D
:10001000F53F000851180008F146000800000000F4
:10002000000000000000000000000000B501000812
:100030005318000800000000F9010008F93F00080B
:1000400067020008670200086702000867020008EC
:1000500067020008670200086702000867020008DC
:1000600067020008670200086702000867020008CC
:1000700067020008670200086702000867020008BC
:10008000670200086702000871170008670200088D
:10009000670200086702000867020008670200089C
:1000A000670200086702000867020008670200088C
:1000B0008D40000867020008670200086702000818
:1000C000670200086702000867020008670200086C
:1000D0006702000867020008E5460008670200089A
:1000E00055180008670200086702000800F002F8CF
:1000F00000F050F80AA090E8000C82448344AAF172
:100100000107DA4501D100F045F8AFF2090EBAE86F
:100110000F0013F0010F18BFFB1A43F0010318473B
:10012000486B0000686B0000103A24BF78C878C1A3
:10013000FAD8520724BF30C830C144BF04680C60ED
:10014000704700000023002400250026103A28BF35
:1001500078C1FBD8520728BF30C148BF0B60704739
:10016000662906F01F85642900F0CC8000207047C6
:100170001FB500F0B7FD04000020002106F092FA40
:10018000401C60600020002106F076FAE0601FBD90
:1001900010B510BD00F0EEFE1146FFF7E9FF04F0C8
:1001A000F9FA00F01AFF03B4FFF7F2FF03BC00F006
:1001B0001DFF0000224B19680868B0E8F00F80F3BB
:1001C0000988BFF36F8F4FF0000080F311884EF065
:1001D0000D0E70470000000006480068006880F3BC
:1001E000088862B661B6BFF34F8FBFF36F8F00DF31
:1001F00000BF00BF08ED00E0EFF30980BFF36F8F91
:100200000F4B1A6820E9F00F106008B54FF050004E
:1002100080F31188BFF34F8FBFF36F8F05F0F2FAB1
:100220004FF0000080F31188BDE8084019680868A5
:10023000B0E8F00F80F30988BFF36F8F704700BFFD
:1002400068000020EFF305807047000009488047F0
:1002500009480047FEE7FEE7FEE7FEE7FEE7FEE7A8
:10026000FEE7FEE7FEE7FEE704480549054A064BC0
:100270007047000089400008ED000008902F002022
:100280009035002090310020903100200FB41CB533
:10029000074B06AA7B4469460090059800F071FC64
:1002A0000020694600F080FC1CBC5DF814FB0000D7
:1002B0001109000070B5044685690068C10601D5C2
:1002C000302600E02026C00707D070BDD4E9012108
:1002D00030469047206A401C20626D1EF6D570BDE6
:1002E00070B5044685690078C00707D170BDD4E9B0
:1002F000012120209047206A401C20626D1EF6D507
:1003000070BD00002DE9F0410646002410687529F3
:10031000314616A510D0AFF30080002802DA404223
:1003200013A507E031688A0701D512A502E0490745
:1003300004D511A5012401E0AFF3008000210A22B9
:1003400006F1240709E0B0FBF2FCB0FBF2F302FB7C
:100350001C00303078541846491C0028F3D123463D
:100360002A463046BDE8F04100F0A0B90000000088
:100370002D0000002B000000200000002DE9F047B8
:100380004FF0000A89460446C0F820A02046E168E4
:100390008847002876D0252806D0D4E90121904747
:1003A000206A401C2062F1E7E16820460026884769
:1003B000C4F81CA005460027C4F818A02A2D09D0AF
:1003C000284604F0DFF938B304EB8708303DC8F85D
:1003D000185019E059F8041B204604EB870291617C
:1003E000E1688847012F054618D1E069002820DA26
:1003F00026F020061DE0D8F8180000EB800005EB81
:1004000040003038C8F818002046E16888470546A3
:1004100004F0B8F90028EED1012F0AD02E2D08D112
:100420002046E16888477F1C0546022F46F02006DB
:10043000C4DBA069002803DA404246F00106A0614F
:10044000F00701D026F010066C2D0AD0682D08D0D8
:100450004C2D39D06A2D35D0742D35D07A2D33D02E
:1004600016E0E1682F4620468847B84205460AD183
:100470006C2F27D04FF48060E16806432046884700
:10048000054605E027E06C2F1AD04FF48070064334
:100490000DB3A5F14100192802D8203546F40066B5
:1004A0004A462946204626604E46FFF759FE80B14F
:1004B00001280BD0F61D26F0070000F1080965E7BA
:1004C0004020E4E78020D7E70020D5E706F10409C3
:1004D0005CE7284661E7206ABDE8F08770B506460C
:1004E00000F0E0F80468054630460A22002100F0DA
:1004F00060FB2C6070BD10B5431C02E010F8011BBE
:1005000071B18107FAD14FF0013202C88C1A8C43C5
:1005100014EAC211F9D0C01A0A0603D0C01E10BDD9
:10052000C01A10BD0A0401D0801E10BD0902FCD003
:10053000401E10BD032A40F2308010F0030C00F082
:10054000158011F8013BBCF1020F624498BF11F80D
:1005500001CB00F8013B38BF11F8013BA2F10402C6
:1005600098BF00F801CB38BF00F8013B11F003033E
:1005700000F05783083AC0F0088051F8043B083A6D
:1005800051F804CBA0E80810F5E7121D5CBF51F844
:10059000043B40F8043BAFF30080D20724BF11F8BE
:1005A000013B11F801CB48BF11F8012B24BF00F823
:1005B000013B00F801CB48BF00F8012B704702F067
:1005C000FF0343EA032242EA024200F05EBB4FF01F
:1005D000000200B5134694469646203922BFA0E893
:1005E0000C50A0E80C50B1F12001BFF4F7AF09079F
:1005F00028BFA0E80C5048BF0CC05DF804EB890090
:1006000028BF40F8042B08BF704748BF20F8022BD2
:1006100011F0804F18BF00F8012B70474FF0013CDC
:1006200050F8042B51F8043B9A4221D1A2EB0C0361
:10063000934313EACC1317D150F8042B51F8043B21
:100640009A4215D1A2EB0C03934313EACC130BD1BE
:1006500050F8042B51F8043B9A4209D1A2EB0C0349
:10066000934313EACC13DBD04FF00000704700BF78
:10067000D01A01BAB1FA81F101F0180122FA01F0A1
:10068000CB40C1F12001DBB2C0B2C01A2CFA01F399
:10069000D11A914311EAC311E6D1704770477047F0
:1006A0007047000000487047302F00202DE9F047C8
:1006B0000D4699469246044600F1240801688806D2
:1006C00004D5E06921F01001216000E00120A8427A
:1006D00001DD471B00E00027A1697A1902EB090040
:1006E000081AA0612078C00602D42046FFF7E2FD78
:1006F000002608E0D4E901211AF806009047206A94
:10070000401C761C20624E45F4DB2078C0060AD5DA
:100710002046FFF7CFFD06E0D4E9012130209047C5
:10072000206A401C2062381EA7F10107F4DC07E0B4
:10073000D4E9012118F805009047206A401C206286
:10074000281EA5F10105F3DC2046FFF7C9FD20783E
:10075000000602D50220BDE8F0870120FBE77047C4
:100760002DE9FF4F0C461E464FF0FF378BB0D2E904
:100770000001DDF860800A908A46C1F30A5505B988
:100780003D46002108464FF00000BAF1000F00F48A
:10079000400005DA00EB80004FF4400101EA500010
:1007A0004FEA9059B9F1010F00DDB9460A9850EAB5
:1007B0004A000ED044F61050A5F2FF3545432F14E1
:1007C000B8F1000F1ED07542291E1EDDC9F10002CE
:1007D0001CE0B8F1010F4FF0000001D0302103E020
:1007E000F24305E02154401CB042FBDB30460022BE
:1007F000002121540B99C1F80880C1E900200FB0F5
:10080000BDE8F08FBD1B6D1CDEE74A4600DA694289
:1008100006A800F041FB06AB93E8070003AB83E8B2
:10082000070050460A9900F0E8FB8DE80700A0F5A4
:1008300000501F3800900398002D09DD42F21F017F
:100840004A46084403A90390684600F047FE08E0C2
:10085000A0F500504A461F3803A90390684600F0EF
:1008600051FE8DE807000004000C03D04FF0FF306C
:10087000410800E01046B8F1000F03D000220092BA
:1008800015461EE0751E05D400F030FA3032625570
:100890006D1EF9D5B3460122084302D000227F1C09
:1008A00004E02078302801D100227F1E002A099719
:1008B00086D01DE0112D07DA00F018FA30326255AB
:1008C0006D1C50EA0102F5D1084302D00098C8B16E
:1008D0000EE00021681E05E0235C625C6354225434
:1008E000401E491C8142F7DBAB46A81B401E099005
:1008F000002004F80B000B98099AC0F80880C0E9A2
:10090000002B7CE711264FF0000859E72DE9F04F46
:1009100088460446D21D22F0070191B0D1E90001BA
:10092000CDE90A0103F00AFF02460B98C00F01D07F
:100930002D2007E02068810701D52B2002E020212F
:1009400001EAC000032A099001D0072A05DB03460B
:100950004146204600F010FA0BE12078800601D5D0
:10096000E06900E00620B8F1650F814606D0B8F1D5
:10097000660F18D0B8F1670F70D131E00020B9F1DF
:10098000110F009001DB112301E009F101030AAA14
:1009900001A90CA8FFF7E4FEDDE90C70002609F1BF
:1009A0000105834647E001204B4600904FF0004789
:1009B0000AAA01A90CA8FFF7D3FEDDE90DB00C9936
:1009C0005D46002610B909F101000D18B9EB0500CC
:1009D00003D4C0F1FF3609F10105A5EB09002BE0B6
:1009E000B9F1010F01DA4FF001090020B9F1110F3F
:1009F0000090484601DD112300E003460AAA01A940
:100A00000CA8FFF7ADFEDDE90C704D4600268346CD
:100A1000207800070AD4AB4500DA5D4601A8012D15
:100A200004DD411911F8011C302907D04F4502DAC5
:100A300017F1040F04DA012082460FE06D1EEEE785
:100A4000002F02DCED1B3E4403E0781CA84200DDD1
:100A50007D1CB81B00F1010A4FF000472078000709
:100A600003D4AA4501DB4FF0FF3A0021B7F1004F54
:100A70000DF143088DF8431024D002202B23002FC2
:100A800001DA7F422D230A21021EA0F1010000DCC1
:100A90005FB197FBF1FC97FBF1F201FB1C7C174661
:100AA0000CF1300C08F801CDEEE7A8F1010003705D
:100AB0002188090501D5452100E06521A0F1010843
:100AC00000F8011C09980FA9A1EB0807FF1D00B150
:100AD0000120411901EBEA70A1693844081A401E4F
:100AE000A0612078C00602D42046FFF7E3FB0998F6
:100AF00028B1D4E901219047206A401C2062207867
:100B0000C00622D52046FFF7D5FB1EE0002E04DBF1
:100B1000B34502DD01A8805D00E03020D4E9012169
:100B20009047206A401C2062761CAAF101005FEA0F
:100B3000000A0AD100F0D6F8C0680168405CD4E928
:100B400001219047206A401C2062281EA5F1010562
:100B5000DCDC07E0D4E9012118F8010B9047206A9A
:100B6000401C2062381EA7F10107F3DC2046FFF786
:100B7000B7FB032011B043E601694A1C0261087803
:100B8000704700B58FB0CDE90131002105910549CD
:100B90007944CDE9031011466846FFF7EFFB0FB02B
:100BA00000BD0000E5FFFFFF0A6802F8010B0A60C4
:100BB00070472DE9F04791460F46804604460026CF
:100BC00014F8015B2DB100F085F80068405DC007A6
:100BD000F6D12B2D02D02D2D18D0641E4A46394651
:100BE000204600F009F927B13968A14201D1C7F8C0
:100BF00000804FF0020471050BD54042002803DD50
:100C0000FFF750FD0460A007BDE8F08746F480665A
:100C1000E4E70028F8DAFFF745FD04606FF00040D4
:100C2000F2E710B5203AC0F00B80B1E81850203A36
:100C3000A0E81850B1E81850A0E81850BFF4F5AF7C
:100C40005FEA027C24BFB1E81850A0E8185044BF06
:100C500018C918C0BDE810405FEA827C24BF51F873
:100C6000043B40F8043B08BF7047D20728BF31F867
:100C7000023B48BF11F8012B28BF20F8023B48BFB8
:100C800000F8012B70474FF000020429C0F01280D9
:100C900010F0030C3FF49DACCCF1040CBCF1020F3E
:100CA00018BF00F8012BA8BF20F8022BA1EB0C0104
:100CB000FFF78FBC5FEAC17C24BF00F8012B00F86E
:100CC000012B48BF00F8012B704700000048704717
:100CD000302F002010B500F005F8001D10BD00BF3A
:100CE000C559000000487047502F002030B5B0F1C2
:100CF0000A024FEA900E71F100034EEA817EB0EBDA
:100D00000E0061EB91014FEA101E4EEA017E10EBDE
:100D10000E0041EB11114FEA102E4EEA016E10EB5E
:100D20000E0041EB11214FEA104E4EEA014E10EB3E
:100D30000E0041EB1141401841F100014FEAD00093
:100D400040EA41704FEAD10110EB80054FEA81047F
:100D500044EA907444EB01046D1944EB0404521B03
:100D6000A3414FF0000348BF0A3200D530BD401CFC
:100D700041F1000130BD00002DE9F0411F4604465D
:100D800003260168072A01F4006004DB08B116A5F8
:100D900005E016A503E008B115A500E015A521F0B2
:100DA00010002060A069C01EA0610FB1401EA061AC
:100DB0002046FFF77FFA4FB1D4E90121384690472A
:100DC000206A401C2062C01C206206E0206AFAE70C
:100DD000D4E9012115F8010B9047761EF8D2204680
:100DE000FFF77EFABDE8F0814E414E006E616E0065
:100DF000494E4600696E66002DE9F05F8246154651
:100E00008B4600270AF10104B9460078302801D04A
:100E10009DB113E014F8010B0127782803D058285E
:100E200001D045B10AE00DB1102D07D1002714F80B
:100E3000010B102502E0082500E00A250026B04637
:100E40000EE005FB080005FB06F101271FFA80F8FC
:100E500001EB1046B6F5803F00D3B94614F8010BFC
:100E6000294600F0ACF80028EBDABBF1000F05D002
:100E70000FB1641E00E05446CBF80040B9F1000FFA
:100E800006D0FFF70FFC02210160C81EBDE8F09FED
:100E900048EA0640FAE700002DE9F0478146164689
:100EA0008AB0334878440DC88DE80D003048784446
:100EB000801C03AC0DC884E80D0041F69B3008444B
:100EC000372190FBF1F290FBF1F5A5F1800501FBD4
:100ED00012041B3C02D56442012000E00020DFF830
:100EE00090A080460027FA44AAF1BE0A0DE0E00770
:100EF00009D03246684607EB47010AEB810100F052
:100F000001FB8DE8070064107F1C002CEFD1184F07
:100F10007F44AC3F18E0E80714D007EB04100DF154
:100F2000180A90E80E008AE80E00C068F04201D16D
:100F300098190890324606A903A800F0E3FA03AB1B
:100F400083E807006D10641C002DE4D13246694629
:100F5000B8F1000F03A802D000F0C0FA01E000F0E1
:100F6000D1FAC9E90001C9F808200AB0BDE8F08744
:100F7000A85D00007546FFF7A9FEAE46050069466C
:100F8000534620F00700854618B020B5FFF76CF9EE
:100F9000BDE820404FF000064FF000074FF000087A
:100FA0004FF0000B21F00701AC46ACE8C009ACE8FB
:100FB000C009ACE8C009ACE8C0098D4670473A28C2
:100FC00000D2303820F02002412A01D3A2F13700AC
:100FD000884201D34FF0FF30704710B50446AFF39D
:100FE00000802046BDE81040FFF7DDB80149182019
:100FF000ABBEFEE72600020070475FEA400C08BF68
:1010000091F0000F4FEA8C234FEAC12243EA51517D
:101010004FEA1C5018BF00F5F0404FEA300018BFEF
:1010200041F000415FEA6C5C00F02980BCF1FF3FB9
:1010300008BF40F080407047130C06BF12044FF009
:10104000100C4FF0000C130E04BF12020CF1080C30
:10105000130F04BF12010CF1040C930F04BF920094
:101060000CF1020CD30F04BF52000CF1010C11461D
:101070004FF00002A0F11F00A0EB0C00704711F030
:10108000004F08BF704731F000413FF4D5AF0B0C63
:1010900006BF09044FF0100C4FF0000C0B0E04BFFC
:1010A00009020CF1080C0B0F04BF09010CF1040C30
:1010B0008B0F04BF89000CF1020CCB0F04BF490059
:1010C0000CF1010CCCF12003A0EB0C0022FA03F38D
:1010D00002FA0CF241EA030100F10100704720F02E
:1010E0007F4C80EA030023F07F47ACEB070303F556
:1010F0007C5300F0004003F1FF032DE980494FEAE3
:10110000154B09B44FEA144325EA0B4E24EA034871
:101110000FF2042606EB132749083E785FEA3202F5
:1011200003FB0667C7F5000707FB06F64FEA5437CF
:101130004FEAD64606F1020607FB066CCCF1005CCE
:101140004FEA1C472CEA074C07FB06F40CFB06F59C
:1011500004EB15464FEA961634BF00204FF00040CE
:101160004FEAD13706FB07FC4FEA1C4C0CFB0BF790
:10117000D21B03FB0CF761EB07010CFB0EF7B0EB86
:10118000074072EB17420CFB08F734BFA2EB074293
:10119000B2EB074261EB17414FEA0C444FEA91076B
:1011A00006FB07FC4FEA1C4C0CFB0BF7B0EBC740EF
:1011B00072EB573203FB0CF734BFA2EBC742B2EB22
:1011C000C74261EB57310CFB0EF7B0EBC70072EB77
:1011D00057720CFB08F734BFA2EBC702B2EBC70291
:1011E00061EB5771039F4FEA816141EA921104EB71
:1011F000CC044FEAD1374FEA826206FB07FC42EA91
:1012000090124FEA80604FEA1C4C0CFB0BF7D21B8C
:1012100003FB0CF761EB07010CFB0EF7B0EB07408B
:1012200072EB17420CFB08F734BFA2EB0742B2EB9C
:10123000074261EB17414FEA8C554FEA910704EBE7
:101240009C2406FB07FC4FEA1C4C0CFB0BF7B0EB95
:10125000C74072EB573203FB0CF734BFA2EBC74217
:10126000B2EBC74261EB57310CFB0EF7B0EBC70096
:1012700072EB57720CFB08F734BFA2EBC702B2EB5C
:10128000C70261EB577115EB4C254FEA816141EACA
:1012900092114FEA82624FEAD13742EA901206FB7E
:1012A00007FC44F100044FEA80604FEA1C4C0CFB41
:1012B0000BF7D21B03FB0CF761EB07010CFB0EF7DE
:1012C000B0EB074072EB17420CFB08F734BFA2EB00
:1012D0000742B2EB074261EB174115EB1C154FEAD1
:1012E000813141EA92414FEA823242EA90424FEA2A
:1012F00080304FEA0C7644F1000448EA03434EEA9A
:101300000B484FF0000EB2EB080C71EB030724BF43
:10131000624639464EEB0E0E4FF0000B001852415C
:1013200049414BEB0B0BB2EB080C71EB03077BF164
:10133000000B24BF624639464EEB0E0E4FF0000BF9
:101340000018524149414BEB0B0BB2EB080C71EB0F
:1013500003077BF1000B24BF624639464EEB0E0EAD
:1013600051EA020718BF46F0010616EB0E7655F15A
:10137000000254F1000103D5BDE88901BDE80088F1
:10138000BDE88901BDE80048B619524141EB0101B1
:10139000A3F10103704780807F7E7D7C7B7A797822
:1013A000777676757473727171706F6E6E6D6C6C2A
:1013B0006B6A6A69686867666665646463636261CC
:1013C0006160605F5F5E5E5D5D5C5C5B5B5A5A594D
:1013D00059585857575656555555545453535252B9
:1013E0005251515050504F4F4F4E4E4D4D4D4C4C11
:1013F0004C4B4B4B4A4A4A4949494848484747475A
:101400004746464645454544444444434343434296
:10141000424242414141002B26D4770021D01CB5E5
:101420004FEA370703B44FF010004FF010014FF0B0
:1014300000000FBCBDE810400BF1010BBBF1010F28
:1014400008BF5FEA170722BF12F1010211F1010183
:101450004FF0004143F1000300F0004043EA000078
:101460007047F9D35708DAE746EA064613F1400F0A
:101470004FEA16461FDD13F1200FDFBF16430A4661
:10148000002120335B42C8D0C3F1200746EA06465C
:1014900002FA07F74FEA164646EA0706C3F12007A5
:1014A00022FA03F201FA07F721FA03F14FF00003E1
:1014B00042EA0702B1E746EA020646EA06464FEA72
:1014C000164646EA0106BCBF46EA0646360C4FF011
:1014D00000034FF000024FF000019EE72DE9C048E5
:1014E000934630B491E8380007C831EA400C48BF51
:1014F00034EA430C03D5FFF7F2FDFFF78CFFF0BC95
:10150000BDE800882DE9C048934630B491E8380022
:1015100007C810F0804F08BF13F0804F03D100F0D0
:1015200005F8FFF778FFF0BCBDE8008820F07F47A2
:1015300080EA030023F07F4C07EB0C03A3F57C53F8
:1015400000F00040A3F1FE0392F0000F00F0B38022
:1015500095F0000F00F077802DE901494FEA114026
:101560004FEA144621EA004800FB06FC24EA06473D
:1015700008FB06F607FB08F800FB07F718EB064820
:101580004CEB164C4FEA124B18EB07484FEA154646
:101590004CEB174022EA0B4E0BFB06FC25EA0647F4
:1015A0000EFB06F607FB0EFE0BFB07F71EEB064EC7
:1015B0004CEB164C4FF000061EEB074E4CEB174B56
:1015C00018EB0B0840F1000018EB0E0B58EB00086D
:1015D00040F100008F1A4FF000013CBFC943661B69
:1015E00014BFB5EB040C00213CBFC943F61B4FEA06
:1015F00017444EEA8E0E27EA04454FEA1C4704FBC7
:1016000007622CEA074C05FB07F70CFB05F604FB09
:101610000CFC16EB074642EB174216EB0C4642EB6E
:101620001C421BEB060658EB0202414146EA9E06AD
:1016300001D5BDE80189B619524141EB0101A3F181
:101640000103BDE801894FEA14454FEA114724EA36
:10165000054621EA074C05FB07F406FB07F70CFBE0
:1016600006F105FB0CFC11EB074144EB17444FEA74
:10167000124711EB0C4144EB1C4422EA074C05FBDA
:1016800007F206FB07F70CFB06F605FB0CFC16EB56
:10169000074642EB174216EB0C4642EB1C456A1814
:1016A00054F1000148BF7047B619524141EB0101A6
:1016B000A3F10103704795F0000F37D04FEA1142B4
:1016C0004FEA144721EA024624EA074C02FB07F1DD
:1016D00006FB07F70CFB06F402FB0CFC14EB0744BB
:1016E00041EB17414FEA154714EB0C4441EB1C4109
:1016F00025EA074C02FB07F506FB07F70CFB06F68D
:1017000002FB0CFC16EB074645EB174516EB0C46A7
:1017100045EB1C42121951F1000148BF7047B61940
:10172000524141EB0101A3F1010370474FEA144517
:101730004FEA114724EA054621EA074C05FB07F169
:1017400006FB07F70CFB06F24FF0000605FB0CFC4E
:1017500012EB074241EB174112EB0C4251EB1C41DB
:1017600048BF7047921841EB0101A3F10103704794
:10177000014800F0F6BB00000001002070B50446EF
:1017800000688168C943C90717D1816821F0010148
:10179000816000F01BFF05460AE000BF00F016FF65
:1017A000401B022804D920688068C043C00706D0C7
:1017B00020688068C043C007F0D0002070BDA06AD8
:1017C00040F01000A062E06A40F00100E0620120F9
:1017D00070BD0000F8B500260446009600688168D8
:1017E000C943C9072DD0816841F0010181601648C5
:1017F00016490068B0FBF1F000E0401E00900028A0
:10180000FBD100F0E3FE054616E000BF00F0DEFE6F
:10181000401B022810D920688068C043C0070BD045
:10182000A06A40F01000A062E06A40F00100E062AF
:1018300084F824600120F8BD20688068C043C00798
:10184000E4D10020F8BD00006400002040420F00F9
:10185000FEE770474FF4004000F0B6BD002141F2B2
:101860008372904202DD821A112A01D86421ADE20E
:10187000A0F5B852943A112A01D86321A6E2A0F546
:10188000B852A53A112A01D862219FE2A0F5B852B8
:10189000B63A112A01D8612198E2A0F5B852C73AA8
:1018A000112A01D8602191E2A0F5B852D83A112A44
:1018B00001D85F218AE2A0F5B852E93A102A01D88E
:1018C0005E2183E2A0F5B852F93A112A01D85D21D0
:1018D0007CE2A0F5C0520A3A102A01D85C2175E2D8
:1018E000A0F5C0521A3A102A01D85B216EE2A0F589
:1018F000C0522A3A102A01D85A2167E2A0F5C052F4
:101900003A3A0F2A01D8592160E2A0F5C052493A6B
:10191000102A01D8582159E2A0F5C052593A0F2A8D
:1019200001D8572152E2A0F5C052683A102A01D8D6
:1019300056214BE2A0F5C052783A0F2A01D8552122
:1019400044E2A0F5C052873A0F2A01D854213DE263
:10195000A0F5C052963A0F2A01D8532136E2A0F5DD
:10196000C052A53A0E2A01D852212FE2A0F5C0524A
:10197000B33A0F2A01D8512128E2A0F5C052C23A49
:101980000E2A01D8502121E2A0F5C052D03A0F2AE8
:1019900001D84F211AE2A0F5C052DF3A0E2A01D831
:1019A0004E2113E2A0F5C052ED3A0E2A01D84D2186
:1019B0000CE2A0F5C052FB3A0E2A01D84C2105E2F8
:1019C000A0F5C852093A0E2A01D84B21FEE1A0F534
:1019D000C852173A0E2A01D84A21F7E1A0F5C85299
:1019E000253A0D2A01D84921F0E1A0F5C852323A32
:1019F0000E2A01D84821E9E1A0F5CA520D2A01D8E2
:101A00004721E3E1A0F5C8524D3A0E2A01D84621FC
:101A1000DCE1A0F5C8525B3A0D2A01D84521D5E199
:101A2000A0F5C852683A0D2A01D84421CEE1A0F5AC
:101A3000C852753A0D2A01D84321C7E1A0F5C85212
:101A4000823A0D2A01D84221C0E1A0F5C8528F3A4E
:101A50000D2A01D84121B9E1A0F5C8529C3A0C2ABF
:101A600001D84021B2E1A0F5C852A83A0D2A01D808
:101A70003F21ABE1A0F5C852B53A0D2A01D83E216D
:101A8000A4E1A0F5C852C23A0C2A01D83D219DE13B
:101A9000A0F5C852CE3A0D2A01D83C2196E1A0F516
:101AA000C852DB3A0C2A01D83B218FE1A0F5C8527D
:101AB000E73A0C2A01D83A2188E1A0F5C852F33A56
:101AC0000D2A01D8392181E1A0F5D0520C2A01D884
:101AD00038217BE1A0F5D0520C3A0C2A01D83721ED
:101AE00074E1A0F5D052183A0C2A01D836216DE1E4
:101AF000A0F5D052243A0C2A01D8352166E1A0F590
:101B0000D052303A0C2A01D834215FE1A0F5D052EE
:101B10003C3A0C2A01D8332158E1A0F5D052483A7A
:101B20000C2A01D8322151E1A0F5D052543A0C2AA6
:101B300001D831214AE1A0F5D3520C2A01D8302135
:101B400044E1A0F5D0526C3A0C2A01D82F213DE196
:101B5000A0F5D052783A0C2A01D82E2136E1A0F512
:101B6000D052843A0C2A01D82D212FE1A0F5D05271
:101B7000903A0C2A01D82C2128E1A0F5D0529C3AA9
:101B80000C2A01D82B2121E1A0F5D052A83A0C2A29
:101B900001D82A211AE1A0F5D052B43A0C2A01D872
:101BA000292113E1A0F5D6520C2A01D828210DE1F4
:101BB000A0F5D052CC3A0C2A01D8272106E1A0F595
:101BC000D052D83A0C2A01D82621FFE0A0F5D052F5
:101BD000E43A0C2A01D82521F8E0A0F5D052F03AD9
:101BE0000C2A01D82421F1E0A0F5D052FC3A0C2AAD
:101BF00001D82321EAE0A0F5D852083A0C2A01D8EE
:101C00002221E3E0A0F5D852143A0D2A01D821216F
:101C1000DCE06FF4D95202440C2A01D82021D5E02F
:101C2000A0F5D8522D3A0C2A01D81F21CEE0A0F5FC
:101C3000D852393A0D2A01D81E21C7E0A0F5D85252
:101C4000463A0D2A01D81D21C0E0A0F5D852533ADA
:101C50000C2A01D81C21B9E0A0F5D8525F3A0D2A10
:101C600001D81B21B2E0A0F5D8526C3A0D2A01D858
:101C70001A21ABE0A0F5D852793A0D2A01D81921E2
:101C8000A4E0A0F5D852863A0D2A01D818219DE08B
:101C9000A0F5D852933A0D2A01D8172196E0A0F565
:101CA000DD520E2A01D8162190E0A0F5D852AE3AA6
:101CB0000D2A01D8152189E0A0F5D852BB3A0E2A89
:101CC00001D8142182E0A0F5D852C93A0E2A01D8D1
:101CD00013217BE0A0F5D852D73A0D2A01D8122162
:101CE00074E0A0F5D852E43A0F2A01D811216DE032
:101CF000A0F5D852F33A0E2A01D8102166E06FF40D
:101D0000E05202440E2A01D80F215FE0A0F5E05214
:101D10000F3A0C2A01D80E2158E0A0F5E0521B3AE8
:101D2000122A01D80D2151E0A0F5E0522D3A0F2AD8
:101D300001D80C214AE0A0F5E0523C3A0F2A01D824
:101D40000B2143E0A0F5E0524B3A102A01D80A21BA
:101D50003CE0A0F5E0525B3A0F2A01D8092135E0BA
:101D6000A0F5E0526A3A102A01D808212EE0A0F529
:101D7000E0527A3A112A01D8072127E0A0F5E05273
:101D80008B3A102A01D8062120E0A0F5E0529B3AB8
:101D9000112A01D8052119E0A0F5E052AC3A112A28
:101DA00001D8042112E0A0F5E052BD3A112A01D871
:101DB00003210BE0A0F5E052CE3A122A01D802210D
:101DC00004E0A0F5E750122800D80121084670472A
:101DD00000B512488BB00068406A1149098900EBD0
:101DE000014004F0CDFD00220E4B04F071FC0022F6
:101DF0000D4B04F0D9FD02460B460CA16846FEF7D8
:101E000045FA6846FEF777FB82B204484FF0FF338D
:101E10006946483001F00AFD0BB000BDCC0100203E
:101E200000000020882A814100408F404375727273
:101E3000656E7420543A20252E326C663A0A0000F2
:101E400070470000F8B50024009490F8242025463F
:101E5000012A12D0012280F824204A681F23072A71
:101E60000DD20668776B521E02EB820293409F43AD
:101E70000B6893401F43776319E00220F8BD0668A2
:101E80000D2A0AD2376BD21F02EB820293409F4386
:101E90000B6893401F43376309E0F76A0D3A02EB82
:101EA000820293409F430B6893401F43F7620A6886
:101EB000072306680A2A0AD3F7680A3A02EB4202A5
:101EC00093409F438B6893401F43F76008E0376956
:101ED00002EB420293409F438B6893401F4337615C
:101EE0000A68102A01D0112A20D1124B02689A42A6
:101EF00017D193681B0219D4936843F400039360CD
:101F00000968102912D10C490C4A0968B1FBF2F199
:101F100001EB8101490000E0491E00910029FBD13D
:101F200004E0816A41F020018162012480F824509C
:101F30002046F8BD002401406400002040420F000C
:101F4000044900680968884203D103480169491CB3
:101F50000161704700010020000000200068C06C93
:101F6000704770B50446006806684568A90625D51F
:101F7000B10723D5A16AC90603D4A16A41F400714F
:101F8000A1628168C1F34241072910D1217B71B957
:101F9000416821F020014160A06A20F48070A062B5
:101FA000A06AC00403D4A06A40F00100A0622046E9
:101FB000FFF7C6FF21686FF01200086028062ED5D3
:101FC00070072CD5A06AC00603D4A06A40F4005064
:101FD000A06220688168C1F30231072909D04168F5
:101FE000490515D48168C1F34241072910D1217BED
:101FF00071B9416821F080014160A06A20F48050ED
:10200000A062A06AC00503D4A06A40F00100A062EB
:102010002046FFF715FF21686FF00C000860680686
:102020000CD5F0070AD0A06A40F48030A0622046A8
:1020300000F094F821686FF00100086070BD0000A6
:102040002DE9F0414FF0000704003D467ED0A06A24
:10205000002628B9E66284F82460204600F080F863
:102060002046FFF78BFBA16A01F01001014304D069
:10207000A06A40F01000A06268E0A16A21F48851D3
:1020800041F00201A1626268E169237B0A4347EAE9
:1020900043010A43A1684FF48077B94208D001296F
:1020A00006D0002194F814C0BCF1010F02D00AE060
:1020B0003946F7E7F3B1A36A43F02003A362E36A6A
:1020C00043F00103E3622368D3F804C02CF4694CA5
:1020D0004CEA010CC3F804C023689968DFF870C0AB
:1020E00001EA0C0111439960A168B9420BD00129A2
:1020F00009D00CE0DFF85CC0A3690CEB43330B4361
:1021000043F40061DFE7218A0D05A5F580152168FC
:10211000CB6A23F470032B43CB62216889680E4B92
:102120001940914208D1E662A16A21F0020141F012
:102130000101A162BDE8F081A06A20F0020040F038
:102140001000A062E06A40F00100E0620120F1E7C7
:10215000FDF7E1FF00E0FFFFFE0E1FFF70470000EC
:1021600000B585B0002100910191029103910068B2
:102170001249884220D11248816941F4007181617D
:10218000816901F400710491816941F00401816168
:102190008069694600F0040004900120009003204B
:1021A0000190084800F01CF900220621122000F0DE
:1021B000FDFB122000F0ECFB05B000BD0024014047
:1021C000001002400008014070B5044690F8240059
:1021D00001280DD0012084F824002046FFF7FAFAE8
:1021E00002004FF0000005D084F82400104670BDB6
:1021F000022070BDA16A40F60163994341F48071E9
:10220000A162224D23682249AB4218D10E6816F410
:10221000702F14D0A66A46F48016A6620E68760562
:1022200005D5A66A26F4005646F48056A662A66A2C
:10223000F6040AD5E66A26F00606E66206E0A66A15
:1022400026F48016A6625E68E9E7E06284F824005E
:102250006FF0020018602068436843F02003436079
:1022600020688368C3F34243072B05D1A84208D1F5
:10227000096811F4702F04D0816841F480118160E5
:10228000B4E7816841F4A001F9E7000000280140AB
:102290000424014010B590F821100022022905D035
:1022A0000421816380F82020012010BD01680B68A3
:1022B00023F00E030B6001680B6823F001030B6031
:1022C00090F84030C46B012101FA03F3636080F899
:1022D000211080F82020104610BD000010B590F8A5
:1022E00021100024022903D00421816301243DE050
:1022F00001680A6822F00E020A6001680A6822F08A
:1023000001020A601A4A0168914201D1012121E0CB
:10231000174A1432914201D110211BE0144A28328D
:10232000914201D1891515E0114A3C32914201D107
:1023300089140FE00E4A5032914202D14FF480319D
:1023400008E00B4A6432914202D14FF4801101E05F
:102350004FF08071064A083A5160012180F821103F
:10236000002180F82010416B01B18847204610BD44
:102370000800024070B5044600F028F90546601CCC
:1023800002D004480078044400F020F9401BA04229
:10239000FAD370BD58000020B0F5004F0DD10748AA
:1023A0000068416A0648074BC2698A1AB3FBF2F219
:1023B0000262C161C168491CC1607047840100208C
:1023C0000000002040420F00044910B50A68024294
:1023D00002D00860FFF7E0FF10BD000014040140C8
:1023E0002DE9F84FDFF8B8910024A9F1040B23463A
:1023F0000F2709F1040AABF1040EC9E00125A5403D
:102400002A40AA427DD1674ED1F804C0ACEB060841
:10241000B44532D014DCBCF1030F3AD009DCBCF176
:10242000000F2AD0BCF1010F1CD0BCF1020F31D13A
:102430001DE0BCF1110F17D0BCF1120F2AD119E029
:10244000B8F5881F19D006DCB8F5803F15D0B8F56F
:10245000801F1FD111E0B8F5001F0ED0B8F5041F82
:1024600018D10AE0CB6815E0CB681B1D12E0CB68E1
:1024700008330FE0CB680C330CE08B682BB1012BD9
:102480004FF0080303D0456104E0042302E0056136
:1024900000E00023FF2A01D8064601E000F104060F
:1024A0004FEA840501D9A5F12005D6F8008007FA86
:1024B00005FC28EA0C0803FA05F548EA0508C6F801
:1024C00000804D68ED0062D5374DAE6946F00106DB
:1024D000AE61AD6924F0030605F001050095334DAA
:1024E00006EB050CDCF80850A607360F07FA06F8CD
:1024F00025EA0805DFF8B880404503D14FF0000811
:1025000017E044E0DFF8AC80404502D14FF001080D
:102510000FE0DFF8A480404502D14FF0020808E048
:10252000DFF89880404502D14FF0030801E04FF0FA
:10253000040808FA06F848EA0508CCF808804D684F
:10254000D9F80060ED024D4601D5164300E09643F0
:102550002E604D68DAF80060AD02554601D516438D
:1025600000E096432E604D68DBF80060AD035D46E9
:1025700001D5164300E096432E604D68DEF80060FA
:10258000ED03754601D5164300E096432E60641CAA
:102590000D682A46E5407FF431AFBDE8F88F0000B2
:1025A000080401400000111000100240000001402A
:1025B00000080140000C01400010014000140140DF
:1025C0000AB1016170470904FBE700000148806817
:1025D000704700005800002070B5040025D094F822
:1025E0003D00002520B984F83C50204600F04EF90B
:1025F000242084F83D002068016821F00101016079
:102600002068016841F4004101602068016821F4FC
:102610000041016000F008FB4D4A6168914201D819
:102620004C4900E04C49884201D2012070BD4B4921
:102630002368B0FBF1F15E6826F03F060E435E6052
:102640006368934206D94FF4967359434FF47A73F3
:10265000B1FBF3F12368491C1E6A26F03F063143A3
:1026600019626168914210D84900401EB0FBF1F236
:10267000521CC2F30B02042A01D2042022E0B0FB58
:10268000F1F0401CC0F30B001CE0A268F2B301EBB8
:10269000C10303EB0116431EB3FBF6F35B1C43F4CB
:1026A00080431B0549D092B301EBC10202EB01113B
:1026B000401EB0FBF1F0401CC0F30B0040F4804022
:1026C00040F400402168CA694CF6FF739A431043F6
:1026D000C861D4E9071001432068026822F0C002F3
:1026E00011430160D4E9030101432068826848F284
:1026F000FF339A4311438160D4E9050108432168FF
:10270000CA6822F0FF021043C86001E00EE016E044
:102710002068016841F0010101602564202084F8EF
:102720003D00256384F83E50002070BD01EB41065A
:10273000431EB3FBF6F35B1CB3E70120C2E701EBDA
:102740004101401EB0FBF1F0401CC0F30B00B7E7A5
:10275000A086010080841E0000093D0040420F0059
:102760002DE9F84F1F4690468A460446DDF828902A
:10277000FFF72CFF054694F83D0020287FD1192350
:10278000012240492046009501F064F9002876D1E5
:1027900094F83C00012872D0012084F83C002068A5
:1027A0000168C90703D1016841F001010160206897
:1027B000016821F400610160212084F83D001020AF
:1027C00084F83E0000262664C4F824806785608D66
:1027D00020852D48E0622B464A465146204601F0AE
:1027E000BFF890B9206841698069009036E02A46B8
:1027F0004946204601F0D4F950B1206C042804D198
:102800002068016841F4007101600120BDE8F88F83
:10281000606A216800780861606A401C6062618DAE
:10282000491E6185218D491E89B22185226853691F
:10283000DB435B070BD451B100781061606A401C28
:102840006062608D401E6085208D401E20852A4676
:102850004946204601F0D2F80028CED1208D00282C
:10286000C5D154F83D0B016841F40071016020208E
:1028700004F81E09E67766770020C7E7FFE7022025
:10288000C4E70000020010000000FFFF10B586B092
:102890000021009101910291039100680F49884243
:1028A0001AD10F4CA06940F00800A061A0696946E8
:1028B00000F008000490C020009012200190032036
:1028C00003900848FFF78CFDE06940F40010E061D8
:1028D000E06900F40010049006B010BD0054004000
:1028E00000100240000C0140024881680278114447
:1028F0008160704758000020074810B5016841F01A
:1029000010010160032000F071F80F2000F006F8BC
:1029100000F024F8002010BD0020024070B50D4DDD
:1029200004464FF47A712878B1FBF0F00A4909683F
:10293000B1FBF0F000F04EFB48B9102C07D200229A
:102940002146501E00F032F800206C6070BD01205E
:1029500070BD000058000020640000200B4882B0C9
:10296000816941F001018161816901F001010091FA
:10297000C16941F08051C161C069002200F08050FE
:1029800000900F21901E02B000F010B8001002401D
:10299000002809DB00F01F0201219140400980005E
:1029A00000F1E020C0F8001170470000F0B40E4BB9
:1029B0001B680C46C3F30223C3F10705042D00D99D
:1029C0000425191D072901D2002300E0DB1E012682
:1029D00006FA05F1491E214099409E40761E164098
:1029E0003143F0BC01F0BEBE0CED00E0064900F042
:1029F000070208684FF6FF03184040EA0220034A26
:102A000010430860704700000CED00E00000FA057C
:102A10002DE9F84305460078354CC00754D0E069ED
:102A20000026C00008D4E06940F08050E061E06911
:102A3000012600F0805000902E480168C90512D48C
:102A40000168804641F480710160FFF7BFFD0746D1
:102A500005E000BFFFF7BAFDC01B642823D8D8F8F3
:102A60000000C005F6D5206A10F4407021D0A98876
:102A700001F4407181421CD0206A1F49012220F4D8
:102A800040700A6000220A602062C00711D0FFF780
:102A90009DFD074641F2883808E000BFFFF796FD2C
:102AA000C11B414502D90320BDE8F883206A800795
:102AB000F4D5206A696820F44070084320621EB192
:102AC000E06920F08050E0612878800705D56068D3
:102AD000A96820F44040084360602878C00605D506
:102AE0006068E96820F48000084360600020DBE74C
:102AF0000010024000700040400442422DE9F047BF
:102B00000F46050061D0434E306800F00700B84220
:102B100009D2306820F0070038433060306800F098
:102B20000700B84251D128683B4C810712D54007B5
:102B300003D5606840F4E06060602878000703D542
:102B4000606840F4605060606068A96820F0F00040
:102B5000084360602878C00728D06868012810D032
:102B60002168022810D0890700292EDA616821F037
:102B7000030101436160FFF729FD804641F2883976
:102B80000DE021688903EFE78901EDE7FFF71EFDFE
:102B9000A0EB0801494502D90320BDE8F087606831
:102BA000696800F00C00B0EB810FEFD1306800F0E5
:102BB0000700B8420BD9306820F007003843306076
:102BC000306800F00700B84201D00120E5E728781E
:102BD000400705D56068E96820F4E060084360605C
:102BE0002878000706D56068296920F4605040EA1B
:102BF000C100606000F038F86168084AC1F3031151
:102C0000515CC8400649086006480068FFF786FE28
:102C10000020C2E70020024000100240BA6B00080A
:102C2000640000205C0000200448054900684968F1
:102C3000044AC1F30221515CC8407047640000207F
:102C400000100240CA6B0008044805490068496842
:102C5000044AC1F3C221515CC8407047640000209F
:102C600000100240CA6B00080E4A51680E4801F07D
:102C70000C03042B11D0082B0FD10C48C1F3834354
:102C8000C903C05C0AD55168084AC1F34041921E8D
:102C9000515C054A5043B0FBF1F07047044948438A
:102CA000704700000010024000127A00AA6B000872
:102CB00000093D002DE9F84F040070D02078C04D88
:102CC000C00749D06868C0F38100012807D0686850
:102CD000C0F38100022809D16868C00306D52868BE
:102CE000800339D560680028E7D035E06068B0F52A
:102CF000803F0BD010B1B0F5A02F11D0286820F480
:102D000080302860286820F4802002E0286840F4A1
:102D100080302860606890B1FFF758FC06460AE0F2
:102D2000286840F480202860F0E700BFFFF74EFCE1
:102D3000801B642873D828688003F7D50CE0FFF760
:102D400045FC064605E000BFFFF740FC801B6428F9
:102D5000F0D828688003F7D420789A4E80074FF087
:102D600001094FF0000839D5686810F00C0F07D042
:102D70006868C0F38100022809D16868C00306D4DE
:102D80002868800714D52069012808D110E020693F
:102D9000B0B1C6F80090FFF719FC074605E00AE15C
:102DA000FFF714FCC01B0228C4D828688007F7D599
:102DB0002868616920F0F80040EAC10028600DE051
:102DC000C6F80080FFF702FC074604E0FFF7FEFBB1
:102DD000C01B022823D828688007F7D42078000772
:102DE0002CD57948A169D9B1C0F80090FFF7EEFB66
:102DF000074604E0FFF7EAFBC01B02280FD8686A09
:102E00008007F7D571484FF4FA510068B0FBF1F034
:102E1000009000BF0098411E0091FAD20EE080E0C1
:102E2000C0F80080FFF7D2FB074604E0FFF7CEFBB7
:102E3000C01B022875D8686A8007F7D4207840073D
:102E400060D5E8690027C00008D4E86940F08050E8
:102E5000E861E869012700F0805000905C48016853
:102E6000C90513D40168834641F480710160FFF7FE
:102E7000ADFB824606E000BFFFF7A8FBA0EB0A000F
:102E800064284ED8DBF80000C005F5D5E0680128BD
:102E90000AD008B1052813D0286A20F00100286262
:102EA000286A20F0040002E0286A40F0010028624D
:102EB000E06841F2883B98B1FFF788FB82460BE05F
:102EC000286A40F004002862EEE700BFFFF77EFBAF
:102ED000A0EB0A0159455AD8286A8007F6D50CE0BC
:102EE000FFF774FB824605E0FFF770FBA0EB0A01D9
:102EF00059454CD8286A8007F6D41FB1E86920F0FC
:102F00008050E861E06988B36968C1F381010229F2
:102F100044D00228C6F8608004D0FFF757FB04466F
:102F200038E034E0FFF752FB074604E0FFF74EFBC2
:102F3000C01B02282BD828688001F7D4206AB0F57E
:102F4000803F05D16868A16820F4003008436860BC
:102F5000D4E908010843696821F4741108436860E2
:102F6000C6F86090FFF732FB044606E025E000BF9C
:102F7000FFF72CFB001B022809D828688001F7D531
:102F80001BE000BFFFF722FB001B022802D9032031
:102F9000BDE8F88F28688001F4D40EE00128F7D04E
:102FA0006868226A00F48031914204D1616A00F4B9
:102FB0007010884201D00120EAE70020E8E7000015
:102FC000001002400000424280044242640000209F
:102FD0000070004010B5401EB0F1807F01D3012089
:102FE00010BD4FF0E02460610F21601701F0BAFBC3
:102FF0000020A06107202061002010BD70477047AD
:1030000070B590F83C20012A26D0012480F83C407D
:10301000022280F83D2003685A689D6822F07006FD
:103020000A6832435A600D4B02689A4208D0B2F1E6
:10303000804F05D00A4B9A4202D00A4B9A4204D1E3
:10304000496825F080031943916080F83D400021D4
:1030500080F83C10084670BD022070BD002C014075
:10306000000400400008004010B5040003D094F8AC
:103070003D0010B107E0012010BD002084F83C00A5
:10308000204600F01FF8022084F83D00211D206832
:1030900001F002F8012084F8460084F83E0084F82C
:1030A0003F0084F8400084F8410084F8420084F82E
:1030B000430084F8440084F8450084F83D00002073
:1030C00010BD000008B5114A01681148914208D1AD
:1030D000816941F400618161806900F400600090C1
:1030E00008BDB1F1804FFBD1C16941F00101C1615F
:1030F000C069002200F00100009005211C20FFF7AC
:1031000055FCBDE808401C20FFF742BC002C0140E4
:103110000010024090F83D10012901D001207047B5
:10312000022180F83D1000680B49884208D0B0F1B8
:10313000804F05D00949884202D00949884204D10C
:10314000816801F00701062903D0016841F00101FF
:103150000160002070470000002C01400004004086
:103160000008004090F83D10012901D0012070476F
:10317000022180F83D100168CA6842F00102CA606D
:1031800000680B49884208D0B0F1804F05D009494A
:10319000884202D00849884204D1816801F00701C1
:1031A000062903D0016841F0010101600020704749
:1031B000002C0140000400400008004070B50446A7
:1031C00090F83C000025012817D0012684F83C60C7
:1031D000022084F83D002068826822F0770222F401
:1031E0007F4282600868502838D00DDC20284FD0FC
:1031F00005DC90B3102811D14AE0022070BD3028C0
:1032000046D040280AD13BE060282FD070280DD04E
:10321000B0F5805F03D0B0F5005F12D0012584F8CF
:103220003D60002084F83C00284670BDCB68D1E9A1
:103230000121206800F066FF2068816841F0770175
:1032400009E0CB68D1E90121206800F05BFF20682C
:10325000816841F480418160E1E719E0CA6849680A
:10326000206800F061FF5021206806E0CA684968C4
:10327000206800F06AFF6021206800F04DFFCEE773
:10328000CA684968206800F04FFF40212068F4E7D1
:10329000226801461046F0E7704770B504460068A2
:1032A00001694FF00005C943890715D4C168C943B6
:1032B000890711D4E91E0161012020772068806907
:1032C0008007204602D0FFF7E7FF04E000F098F8FF
:1032D000204600F096F8257720680169C943490720
:1032E00017D4C168C943490713D46FF004010161C1
:1032F000022020772068806910F4407F204602D0A9
:10330000FFF7CAFF04E000F07BF8204600F079F8F0
:10331000257720680169C943090716D4C168C943E4
:10332000090712D46FF0080101610420207720689A
:10333000C0698007204602D0FFF7AEFF04E000F02E
:103340005FF8204600F05DF8257720680169C943E1
:10335000C90617D4C168C943C90613D46FF0100158
:103360000161082020772068C06910F4407F204662
:1033700002D0FFF791FF04E000F042F8204600F091
:1033800040F8257720680169C943C90708D1C16899
:10339000C943C90704D1891E0161204600F032F8F3
:1033A00020680169C943090609D4C168C9430906EF
:1033B00005D46FF0800101612046FFF71FFE2068F1
:1033C0000169C943490609D4C168C943490605D4FE
:1033D0006FF040010161204600F022F82068016989
:1033E000C94389060BD4C168C943890607D46FF065
:1033F000200101612046BDE87040FFF700BE70BDAE
:1034000070477047044900680968884203D103493E
:103410000889401C08817047CC0100200000002072
:103420007047704770470000F8B5016804460868A7
:10343000CA684B6910F00F0F4FF000055AD003F027
:10344000010602F49077374365D0C10705D0D10556
:1034500003D5616C41F001016164410705D5D907CD
:1034600003D0616C41F002016164810705D5D90781
:1034700003D0616C41F004016164010707D502F0DB
:103480002001314303D0616C41F008016164616C3B
:1034900000293BD0800604D5900602D5204601F0D5
:1034A0000CF820684069616CC0F3801001F00801DD
:1034B000014320462BD000F0D9FF20684069400628
:1034C00021D52068143050E8001F21F0400140E869
:1034D0000012002AF5D1E06BA8B16D494163E06BA1
:1034E000FEF7FCFE002811D0E06B416B01B0BDE897
:1034F000F040084783060ED593060CD52046BDE85C
:10350000F84000F0DABF2046FFF78CFFF8BDFFF768
:1035100089FF6564F8BD266B2023012E7CD1C60689
:103520007AD5D60678D508684868009048694FF083
:103530000206400640D5E16B086840680004000CB4
:10354000E8D0A28D8242E5D9E085886920282DD077
:1035500020680C3050E8001F21F4807140E8001210
:10356000002AF5D12168143151E8000F20F0010044
:1035700041E80002002AF5D12068143050E8001F0D
:1035800021F0400140E80012002AF5D184F84230D1
:10359000256320680C3050E8001F21F0100140E83E
:1035A0000012002AF5D1E06BFEF774FE6663A08D71
:1035B000E18D401A81B22AE0A08DE18D401A81B2DE
:1035C000E08D0028A6D00029A4D022680C3252E851
:1035D000000F20F4907042E80007002FF5D120681A
:1035E000143050E8002F22F0010240E80027002F9D
:1035F000F5D184F84230256320680C3050E8002F64
:1036000022F0100240E80023002BF5D1666320462B
:10361000FFF707FFF8BDFFE705062BD5150629D5EF
:1036200094F841002128F5D1A068B0F5805F01D160
:103630002069B0B1206A411C21622168007848608D
:10364000E08C401E0004000CE084E3D12068C168D7
:1036500021F08001C1602068C16841F04001C16073
:10366000D8E7206A0088C0F308004860206A801C00
:103670002062E5E74006CDD55006CBD5CA68204686
:1036800022F04002CA6084F8413000F01CF9C1E722
:103690005D44000870B5040004D094F84100002592
:1036A00010B106E0012070BD84F84050204600F0C3
:1036B00023F8242084F841002068C16821F40051D7
:1036C000C160204600F05AFF2068016921F4904152
:1036D00001612068416921F02A0141612068C168C7
:1036E00041F40051C1606564202084F8410084F8F1
:1036F00042006563002070BD30B585B000240094A1
:103700000194029403940068184988422BD1184808
:10371000C16941F40031C161C16901F40031049112
:10372000816941F0040181618069124D00F004005B
:103730000490042000900220019003200390694629
:103740002846FEF74DFE0820CDE9000469462846CC
:103750000294FEF745FE002205212620FFF726F9F8
:103760002620FFF715F905B030BD000000440040E9
:10377000001002400008014090F84230202B01D098
:103780000220704721B11AB10023036300F052BF39
:1037900001207047F8B5234C00250095A17904F16C
:1037A0005006262905D0204662788078012A0ED05E
:1037B00022E01C485030FCF79EFE0146194850306C
:1037C000FCF705FFA0793070012060700DE006283D
:1037D00012D2401CC0B2A07031542A2905D16A46C9
:1037E0000821E06C02F09EF808E00E490122891DD4
:1037F0000D48FFF7C1FF01E0062806D00949012264
:10380000891D0948FFF7B8FFF8BD0320607005481F
:103810005030FCF770FE014602485030FCF7D7FEEE
:10382000A570E2E700000020140200202DE9F84313
:10383000044690F841001F4616460D46202802D047
:103840000220BDE8F8837DB176B1002060642120BC
:1038500084F84100FEF7BAFEA6848046E684A0689C
:10386000B0F5805F02D003E00120EAE7206910B1E3
:103870002E4600250EE000260CE08021204600F0B8
:10388000F4FEA0B9AEB116F8010B21684860E08CD7
:10389000401EE084E08C43464FF000020097002871
:1038A000EBD14FF04001204600F0DFFE30B10320A5
:1038B000C7E735F8020BC0F30800E6E7202084F8DC
:1038C00041000020BDE77047FEE700001FB503265A
:1038D0000227164C4FF0FF3800254146E06B02F0FE
:1038E0005DFB8DF80060206AA0F56170FDF7B6FF02
:1038F000ADF8020001230A226946606C02F0A4F9C7
:10390000E07801280CD98DF8007001230A2269465D
:10391000606C02F099F90421E06C01F0BDFFE570E4
:10392000E5600121E06C01F0B7FFD6E70000002060
:1039300001684A69D24352050FD46FF480624A612C
:10394000002140F8301F202242738173026942F047
:1039500004020261017301207047002070470000DB
:10396000F8B50446C06A1E460D461746082807D01B
:10397000012805D010F5803F02D0206B122804D119
:103980002068016841F480710160134600224FF005
:1039900001112046009600F05DF840B120680068F3
:1039A000C00502D54FF4007020640320F8BD2069E3
:1039B000B0F5804F0ED00620216800EAD51040F007
:1039C000F000086133463A460B49204600F08AF879
:1039D00078B902E005F0FE0000E0E8B22168086175
:1039E000054933463A46891F204600F07BF80028F7
:1039F000DCD00120F8BD00000800010070B51646BB
:103A00000D4604461EE02046FFF792FF08B1012054
:103A100070BD681C16D0FEF7D9FD801BA84200D8E7
:103A200085B920684069C04340070BD5002044F8A1
:103A3000300F20216173A073216941F020012161C1
:103A40002073E4E720684069C0434007DBD40020CE
:103A500070BD00002DE9F047984617460D46044614
:103A6000C1F30746DDF820902AE000BFB8F1FF3F20
:103A700026D0FEF7ABFDA0EB0901414502D8B8F115
:103A8000000F1DD12068012E16D0806925EA0000A4
:103A90000004000C12D00020B84211D1002044F8DC
:103AA000300F20216173A073216941F02001216151
:103AB00020730120BDE8F0874069E7E70120EBE7CC
:103AC0002068012E0AD0806925EA00000004000C5D
:103AD00006D00020B842C9D00020EBE74069F3E7E8
:103AE0000120F7E72DE9F047984616460D460446B3
:103AF0004FF000094FF0200AC1F3074723E0206888
:103B00004069C043400515D42068016841F4007144
:103B1000016021686FF480604861C4F8309084F8D7
:103B20003DA084F83E90216C41F00401216484F8AA
:103B30003C9021E0701C06D0FEF748FDA0EB080089
:103B4000B04203D816B1012F1FD021E02068012F09
:103B500015D0806925EA00000004000C18D000BFD1
:103B600044F8309F84F80DA084F80E90216941F04C
:103B70002001216184F80C900120BDE8F0874069A4
:103B800025EA00000004000CEAD12068406901E049
:103B90002068806925EA00000004000CAFD1ECE742
:103BA00070B516460D4604461EE02046FFF7C0FEDF
:103BB00008B1012070BD681C16D0FEF707FD801B00
:103BC000A84200D885B920684069C04300060BD5DB
:103BD000002044F8300F20216173A073216941F067
:103BE000200121612073E4E720684069C04300069A
:103BF000DBD4002070BD00001FB51E4C642500956D
:103C0000002301220321E06C01F094FEC007606CE8
:103C10004FF00A02694614D002F024F99DF8000022
:103C20000328ECD10021084600F063F812A000F050
:103C3000C7F8BDF8020000F087F811A000F0C0F846
:103C4000DDE702F00FF99DF800000428D7D100212C
:103C5000012000F04EF80BA000F0B2F8DDE90201FF
:103C600000F07EF8DF2000F04FF8432000F04CF821
:103C7000C5E700000000002048756D643A000000B0
:103C80002500000054656D703A00000010B5332027
:103C900000F076F83220FEF76DFB322000F070F86D
:103CA0003220FEF767FB282000F06AF83220FEF78A
:103CB00061FB012000F064F83220FEF75BFB062078
:103CC00000F05EF83220FEF755FB0C2000F058F8AB
:103CD0003220FEF74FFB022000F052F83220FEF7B0
:103CE00049FB802000F04CF8BDE810400220FEF7B0
:103CF00041BB28B1012805D1C031C8B200F040B89D
:103D00008031FAE7704700001CB500F0F00141F087
:103D10000D028DF8042041F009018DF805100D21E8
:103D200041EA00118DF80610092141EA00108DF8D2
:103D3000070064200090042301AA4E210148FEF7E9
:103D40000FFD1CBD300100201CB5024603A16846D2
:103D5000FCF79CFA684600F033F81CBD25640000AF
:103D60001CB502460B4604A16846FCF78FFA68466C
:103D700000F026F81CBD000025332E31660000003F
:103D80001CB500F0F00141F00C028DF8042041F068
:103D900008018DF805100C2141EA00118DF806107C
:103DA000082141EA00108DF80700642000900423E8
:103DB00001AA4E210148FEF7D3FC1CBD30010020B2
:103DC00070B50546002404E0285DFFF79DFF641CE4
:103DD000E4B22846FCF78FFBA042F5D870BD000086
:103DE0003EB5002411480094019402940E49846069
:103DF000016001250573047505614FF4602144607D
:103E0000C161FEF71DF908B172B6FEE70720009404
:103E1000CDE9015069460548FEF714F8002801D0A5
:103E200072B6FEE73EBD0000002401400001002004
:103E30002DE9F04786B0002435480094019402949F
:103E40000394816941F010018161816901F01001E1
:103E50000491816941F020018161816901F02001B3
:103E60000491816941F004018161816901F00401DB
:103E70000491816941F0080181618069DFF89480D3
:103E800000F008004FF400550490002229464046F7
:103E9000FEF796FBDFF88090002203214846FEF7EC
:103EA0008FFBDFF878A06F10002239465046FEF7EE
:103EB00087FB0095022601250396CDE9015469464A
:103EC0004046FEF78DFA0320CDE90005CDE9024614
:103ED00069464846FEF784FAE80300901048CDE9A9
:103EE000010569464846FEF77BFA00970396CDE93F
:103EF000015469465046FEF773FA00220521282036
:103F0000FEF754FD2820FEF743FD06B0BDE8F0871C
:103F10000010024000100140000C01400008014068
:103F20000000211010B586B00024184800940194B8
:103F30000294039404941449059401602321C0E978
:103F400001144FF6FF71C0E903148021C0E9054157
:103F5000FFF78AF808B172B6FEE74FF48050009080
:103F600069460A48FFF72AF908B172B6FEE70494D9
:103F700004A906480594FFF743F8002801D072B65B
:103F8000FEE706B010BD0000002C014084010020B7
:103F900010B586B00024164800940194029403944E
:103FA00004944FF080410594C0E900144FF6FF716E
:103FB000C0E90241802104618161FFF755F808B131
:103FC00072B6FEE74FF48050009069460848FFF74C
:103FD000F5F808B172B6FEE7049404A90448059404
:103FE000FFF70EF8002801D072B6FEE706B010BD4C
:103FF000CC010020FEE7FEE710B5FEF775FC02F0ED
:104000001BF9012803D0BDE8104001F06BBD10BDC5
:1040100030B593B028216846FCF7D9FA14210AA8D4
:10402000FCF7D5FA0024022501200F940490009596
:104030001020059012944FF4E010CDE9084011943F
:10404000109407956846FEF735FE08B172B6FEE794
:104050000F20CDE90A054FF48060CDE90C40012125
:104060000AA80E94FEF74AFD08B172B6FEE74FF4B7
:10407000804011900F950FA8FEF7CAFC002801D0D0
:1040800072B6FEE713B030BD704700000148FFF77D
:1040900004B90000CC010020F0B50268164B174CA3
:1040A000174D4FF08047984205D0B84203D0A04248
:1040B00001D0A84203D122F070064A6832439842E8
:1040C00005D0B84203D0A04201D0A84203D122F4C7
:1040D0004074CA6822434C6922F080022243026085
:1040E0008A68C2620A688262984201D109690163E2
:1040F00001214161F0BD0000002C0140000400409E
:104100000008004010B5846842EA032224F47F448A
:104110000A432243826010BD826822F070020A4383
:1041200042F007018160704710B5036A046A24F009
:1041300001040462846924F0F00444EA021423F0C8
:104140000A020A438461026210BD10B5036A046A60
:1041500024F010040462846923F0A00324F4704462
:1041600044EA023243EA01118261016210BD00009B
:104170001FB50426174C4FF0FF3700253946206C39
:1041800001F00CFF1448FDF7E9FE80B201F076F86B
:10419000CDE902018DF8006001230A226946606CB6
:1041A00001F052FD207901280DD901208DF8000081
:1041B00003460A226946606C01F046FD0421E06C6A
:1041C00001F06AFB257125610221E06C01F064FBBE
:1041D000D4E7000000000020000100209EB0DFF8BE
:1041E00008A2DFF80882012700256E1EAAF15004FC
:1041F00008F110090096002301220C21E06C01F067
:1042000099FB01074CD57AA17748FCF707FA78B1FA
:1042100079A17548FCF702FA60B179A17248FCF700
:10422000FDF948B19AF801105046542907D027E00B
:10423000257025E0277023E00220207020E081789F
:104240005F291DD1C1788DF804109AF804008DF80B
:10425000050001A8FCF742F9C0B200EBC001607193
:1042600001EB00114FF47A7000EB81014143B1FB87
:10427000F0F26420009000230421A06B02F0B4F956
:104280005948FCF738F901465748FCF7A0F9564958
:10429000A570657001224A395B48FFF76DFAA9E7FE
:1042A0004007A7D50A221AA9606C01F0DBFD20782F
:1042B000002846D0012820D0022803D053A000F0C7
:1042C000F7FF97E79DF86800012893D1FDF780FD7F
:1042D000627957A16846FBF7D9FF6846FCF70BF9EE
:1042E00082B2334669464848FFF7A0FADDE91C234D
:1042F00053A16846FBF7CAFF19E09DF86800022841
:10430000CDD1FDF765FD627949A16846FBF7BEFF97
:104310006846FCF7F0F882B2334669463A48FFF740
:1043200085FABDF86A204AA16846FBF7AFFF6846E8
:10433000FCF7E1F882B2334669463348FFF776FA74
:1043400058E79DF86800012802D0022809D010E043
:10435000042188F80010DDE91C12C8E90212676127
:104360000AE0032189F80010BDF86A10A9F80210CC
:10437000A7616069012892DBA06901288FDBFDF746
:1043800027FD62792AA16846FBF780FF6846FCF7A3
:10439000B2F882B2334669461B48FFF747FAB9F8CC
:1043A00002202BA16846FBF771FF6846FCF7A3F8D3
:1043B00082B2334669461448FFF738FA642001F0A8
:1043C000C5F8D8E902231EA16846FBF75FFF6846DF
:1043D000FCF791F882B2334669460B48FFF726FA9C
:1043E0006561A56106E7000050000020E0000020A4
:1043F000266E6F726D2A00002668756D642A0000B3
:104400002674656D702A0000140200204E686170E9
:1044100020736169204D6F646520767569206C6F2B
:104420006E67206E686170206C61690A0000000090
:10443000506572696F64203D2025640A0000000009
:1044400054656D70203D20252E316C660A000000F9
:1044500048756D64203D2025640A000010B5406A4F
:104460000021C185C184FEF7DDFF10BD01680C315C
:1044700051E8002F22F4907241E80023002BF5D17F
:104480000168143151E8002F22F0010241E80023B5
:10449000002BF5D1016B012909D101680C3151E8DC
:1044A000002F22F0100241E80023002BF5D120213B
:1044B00080F8421000210163704708B590F842105F
:1044C000222901D0022008BD82684FF480539A420D
:1044D00001D1016921B1816A9A421BD04AB10AE037
:1044E0000268816A5268C2F308020A80816A891CE4
:1044F00008E0026972B10268526802F07F020A7035
:10450000816A491C8162C18D491E0904090CC1855B
:1045100003D01BE002685268F1E70168CA6822F024
:104520002002CA600168CA6822F48072CA60016809
:104530004A6922F001024A61202180F842100021DC
:104540004163026B012A03D0FFF724F9002008BD64
:10455000016301680C3151E8002F22F0100241E89C
:104560000023002BF5D101680A68D20602D50A683B
:1045700049680091818DFEF754FFE7E770B5044666
:1045800000680169E26821F4405111430161216929
:10459000A0680843616908432168CA6841F20C6356
:1045A0009A430243CA6020684169A26921F44071BC
:1045B000114341611E492068884202D1FEF744FB45
:1045C00001E0FEF731FB00EBC00101EB0012606877
:1045D00064218000B2FBF0F3B3FBF1F36FF0180637
:1045E0007343B2FBF0F5B2FBF0F605EB8305322323
:1045F00003EB0515B5FBF1F5B6FBF1F605F0F0059B
:1046000005EB0615B2FBF0F6B2FBF0F0B0FBF1F0F3
:104610006FF01802504306EB800003EB0010B0FB74
:10462000F1F0216800F00F002844886070BD0000A0
:104630000038014081628285C285002141642221C7
:1046400080F84210016921B10168CA6842F48072A1
:10465000CA6001684A6942F001024A610068C168A3
:1046600041F02001C160002070472DE9F0419846DB
:1046700017460E460446069D27E0681C25D02DB13E
:10468000FDF7A4FFA0EB0800A8421ED920680C305B
:1046900050E8001F21F4D07140E80012002AF5D143
:1046A0002068143050E8001F21F0010140E800129A
:1046B000002AF5D1202084F8410084F8420000202F
:1046C00084F840000320BDE8F0812068006836EAE5
:1046D000000004D00020B842CFD00020F3E7012032
:1046E000F9E700000148FEF79FBE00001402002019
:1046F000FEE70000104C40F252356079E16800EBB3
:1047000080006430884205DA00231A461946E06BBF
:1047100001F09AFA60792169C0EBC00000EB40001B
:1047200005EB40008842E8DA00231A461946206C5F
:1047300001F08AFAE1E7000000000020490050EA99
:10474000C12018BF04204A0D18BF40F0010040F2FC
:10475000FF72B2EB515F08BF40F00200012808BFB2
:10476000052070470907090E002804DB00F1E0204E
:1047700080F80014704700F00F0000F1E02080F88E
:10478000141D704730380A2801D2012070470020DC
:10479000704700001CB5FEF7AFF8FFF739FCFFF7D4
:1047A00047FB57485549002401605649C0E90114A8
:1047B0004FF48041C0E9034144618461C4610462F3
:1047C000FDF70AFF08B172B6FEE7FFF7ABFBFFF794
:1047D00007FB4B484C49E43001604FF4E131C0E93C
:1047E00001140C21C460C0E904418461C461FEF776
:1047F00051FF08B172B6FEE7FFF7CAFB40485430DC
:10480000FEF788FC3E489C30FEF7ACFCFFF73EFA12
:104810003B483038FDF7D8FC394801223B49E430A9
:10482000FEF7AAFF394802251E30CDE900500023CB
:10483000802237A1384801F0A7FC344901202231F9
:10484000CDE900010023402234A1364801F09CFC50
:104850002E4800232630CDE90050402232A13448B2
:1048600001F092FC294903202A31CDE900010023FF
:10487000802230A1304801F087FC244904202E31E9
:10488000CDE90001820100232CA12E4801F07CFC1F
:104890002D480090002301224FF47A712BA001F0E3
:1048A00059FE1A4DAD1FA86301F0D4FC02460094D6
:1048B00000230121A86B01F097FE032200210120B3
:1048C00001F026F9E86303220021012001F020F91C
:1048D000286400F0D3FFE86403220021012001F0E6
:1048E00017F9A864002210210A2001F011F9686468
:1048F00000F030F800F04AF8FEE7000000540040F5
:1049000030010020A0860100004400400600002085
:1049100048756D6400000000CD3800085761697467
:1049200000000000F546000854656D7000000000AE
:10493000714100084C434400F93B00085541525472
:1049400000000000DD4100086958000854696D65E9
:1049500072310000EFF3058058B9EFF3108040B9D1
:1049600009490868022801D030B109E0EFF311804D
:1049700030B16FF0050070470120086000207047DB
:104980004FF0FF3070470000B800002010B5EFF383
:10499000058060B9EFF3108048B90B490868022818
:1049A00002D0012806D00BE0EFF3118040B16FF088
:1049B000050010BD0220086000F0D8FE002010BDE8
:1049C0004FF0FF3010BD0000B80000202DE9F0418D
:1049D000134C0F46054666692068001D00F078FC00
:1049E000681C07D137B12168BDE8F0410D48091DA9
:1049F00000F0CCBC20683544B5424560216805D242
:104A0000A068BDE8F041091D00F0A8BC6068091D60
:104A100000F0A4FC206B854200D22563BDE8F08144
:104A2000680000204C0700202DE9F041054600F009
:104A3000B9FC2D4C2069401C206120682B4F10B11F
:104A4000E06930B32BE025602069012827D10026DA
:104A500006EB860007EB800000F072FC761C382E17
:104A6000F6D3234800F06CFC2148143000F068FCB9
:104A70001F48283000F064FC1D483C3000F060FC0A
:104A80001B48503000F05CFC194860601430A06096
:104A900005E02068E96AC06A884200D82560E06ABB
:104AA000401CE0626864E86AA169884200D9A0619C
:104AB00000EB800007EB8000291D00F067FC00F090
:104AC00091FCE06900280CD02068E96AC06A88423D
:104AD00007D208494FF080500860BFF34F8FBFF3F3
:104AE0006F8FBDE8F0810000680000209C0200206C
:104AF000FC06002004ED00E038B500F053FC104C3B
:104B0000A068C8B90F4800F01BFC0E48143000F034
:104B100017FC0C482060143060600A4B00202833DA
:104B2000009003F1500210210A2001F015F8A06056
:104B300010B105A100F0D4FCBDE8384000F052BC33
:104B4000A400002060070020546D72510000000096
:104B500030B4026C0B46002A0BD0C1681144C1600E
:104B60004468A14201D30168C16030BC1846FBF71C
:104B7000E1BC30BC70472DE9F041856B1746044617
:104B80000026026C82B1C7B1E068FBF7D3FCE16894
:104B9000206C091AE1602268914202D26168081A09
:104BA000E060022F16D017E02068A8B9606801F015
:104BB000BBFB0646002060600EE0A068FBF7BAFC75
:104BC000216CA0680844A0606168884204D3206812
:104BD000A06001E005B16D1E6D1CA5633046BDE807
:104BE000F08110B5044690F8590058B101280CD056
:104BF00002280FD0502080F31188BFF34F8FBFF3EE
:104C00006F8FFEE7206B00F001FC2046BDE81040EE
:104C100000F0FCBB10BD000010484FF400514207EB
:104C200006D0C01D0D4920F00700411AC1F5005102
:104C30000B4A00230144C2E900030839103A21F06D
:104C4000070111604B600B600B1AC0E90013936001
:104C50004FF000405360D06070470000300F0020DC
:104C6000CC000020144E154CA6F29C474FF0805803
:104C7000DFF84C9012E000BF00F094FBF068C568CC
:104C8000281D00F025FB2069401E2061E068401EC1
:104C9000E06000F0A7FB2846FFF7A3FFE0680028CC
:104CA000EAD138680128F9D9C9F80080BFF34F8FDD
:104CB000BFF36F8FF2E70000380700206800002084
:104CC00004ED00E070B51D46049C51B1C4F800200D
:104CD000C4E90F010121204600F072FF84F84C5016
:104CE00070BD2460F4E72DE9F0470E46DDE9098444
:104CF0001746824691009946089DA522206BFBF736
:104D00005EFC6FF00301206B01EB8701084420F08B
:104D10000707780707D0502080F31188BFF34F8F23
:104D2000BFF36F8FFEE72218315C82F83410315CDC
:104D300011B1401C1028F6D3002684F84360382DAA
:104D400000D33725E562C4E91356201D00F003FBAC
:104D500004F1180000F0FFFA2461C5F13800646224
:104D6000A061666584F858604A465146384600F0AE
:104D700073FA2060B8F1000F01D0C8F80040BDE818
:104D8000F0872DE9F0471E46DDE9089417460D002F
:104D900080460ED0002C14D0FFF7AEFEC4F8008081
:104DA000C4E90657C4E90869201DBDE8F04700F0D2
:104DB000D2BA502080F31188BFF34F8FBFF36F8FAB
:104DC000FEE7BDE8F087000030B5114900E011466C
:104DD0000A688242FBD34B685C18844203D1406866
:104DE00018444860084643681C18944209D1084C8E
:104DF000103C2468A24209D052681A4442600A68F2
:104E000012680260814200D0086030BD0460F9E79A
:104E1000CC00002070B5002441600B4D0061914230
:104E200006D8D11A8269914206D2011D686807E04E
:104E30009A4203D2994201D3012403E0011D28685C
:104E400000F08CFA204670BDA400002010B5044686
:104E500000F0A8FAA06B28B15FF0000400F0C2FADD
:104E6000204610BD0124F9E730B589B0304D55E03A
:104E70000498002806DADDE90601059A90470498AF
:104E800000284BDB069C606910B1201D00F020FA61
:104E900002A800F0B9F8024604980A283ED2DFE8DA
:104EA00000F00505053D263705053D260598A16955
:104EB000034601442046FFF7ADFF00B3616A204678
:104EC0008847E069012829D1002000900598A16950
:104ED000002342181946204601F086FB78B950207D
:104EE00080F31188BFF34F8FBFF36F8FFEE70598F4
:104EF000A06128B1811813462046FFF78BFF0DE013
:104F0000502080F31188BFF34F8FBFF36F8FFEE700
:104F100094F82C0010B9204600F078FA002204A979
:104F2000A86800F09FFF0028A2D109B030BD0000A2
:104F3000A40000202DE9FC410F46054600F05AFC74
:104F400001A800F061F80446019818B101F0A0FA38
:104F5000BDE8FC81224EAFB170680068A8B300279D
:104F6000291B3A46B06800F0CFFA01F091FA002808
:104F7000EED11C494FF080500860BFF34F8FBFF354
:104F80006F8FE5E7A542EBD801F082FA306827463B
:104F9000C068C468201D00F09BF9E069012810D1A9
:104FA000A0692B4641193A462046FFF733FF40B12E
:104FB00000200346014600902A46204601F014FBDB
:104FC00020B1616A20468847C2E707E0502080F39D
:104FD0001188BFF34F8FBFF36F8FFEE70127BFE745
:104FE000A400002004ED00E006484168096829B1EA
:104FF0004168C968C9684968016370474FF0FF316B
:10500000FAE700006800002070B5054601F022F9BB
:10501000064E04463069844203D200F009F80120AC
:1050200000E0002028602046346170BDA40000200C
:10503000F8B5194D1FE0C068C4680668201D00F06F
:1050400047F9616A20468847E069012813D1A069C1
:105050003044B04206D924616060211D286800F008
:105060007DF908E0002003460146009032462046C4
:1050700001F0BAFA38B1286801680029DBD1696803
:10508000C5E90010F8BD502080F31188BFF34F8FA1
:10509000BFF36F8FFEE70000A400002008484068BF
:1050A000401C4FF0500080F3118804D0BFF34F8FA5
:1050B000BFF36F8FFEE7BFF34F8FBFF36F8FFEE736
:1050C000D40000200346002012B1994302D070475B
:1050D0000B42FCD001207047074C2068016841B1A9
:1050E000C0680021D0F80000FFF724FFFFF7BCFEE6
:1050F000F3E701210020F7E7A40000202DE9F041AB
:10510000044600F04FF994F9455004F1240609E0F3
:10511000606A48B1304601F083F908B100F044FA02
:105120006D1E6DB2002DF3DC4FF0FF3684F8456044
:1051300000F058F900F036F994F9445004F11007E2
:1051400009E0206948B1384601F06AF908B100F079
:105150002BFA6D1E6DB2002DF3DC84F84460BDE8BF
:10516000F04100F03FB900002DE9F041054600276D
:1051700000F040FB314E306808B9FFF74DFDF06894
:1051800005424BD1C5B3083568070ED005F00700BE
:10519000C0F108000544680707D0502080F311884B
:1051A000BFF34F8FBFF36F8FFEE72DB3706885425B
:1051B00034D82248103001460C6801E020460C46E5
:1051C0006168A94202D221680029F7D131688C4276
:1051D00024D007682168016060680837411B1029E6
:1051E0000FD96019420708D0502080F31188BFF30F
:1051F0004F8FBFF36F8FFEE710E041606560FFF7F0
:10520000E3FD61687068401A7060B268904200D235
:10521000B060F06801430020C4E9000101F038F9F2
:10522000780707D0502080F31188BFF34F8FBFF36A
:105230006F8FFEE73846BDE8F0810000BC0000201B
:105240000449086818B10868026D521C02650868B4
:10525000704700006800002010B5031F4FF08074F5
:105260001C601B1F21F001011960191F024B0B600C
:10527000143940380A6010BD9D50000810B501F087
:105280007FFB0022064B01F08FFB4FF06632054B8F
:1052900001F08AFBBDE81040034A044B01F018BA44
:1052A0000000594066660A409A9999999999D140A7
:1052B00010B50446FBF71FF9214682B2BDE8104045
:1052C0004FF0FF330148FEF7B1BA0000140200208E
:1052D000D0E9013201699A60D0E901235A604A6835
:1052E000824201D182684A60002202610868401E41
:1052F0000860086870470000044908680A68806907
:10530000D26A0968C2F138028A61704768000020D9
:10531000034B036003F15C0008608020106070475D
:1053200078080020044B036003F15C0008604FF430
:105330008070106070470000D40A002000F0ACBA02
:1053400000F108014FF0FF32C0E90112C1600161B4
:1053500000210160704700210161704730B50B6882
:105360005A1C02D000F1080202E0026904E0224661
:10537000546825689D42FAD953684B6099608A60E9
:10538000516008610168491C016030BD42684A6093
:1053900093688B6093685960916008610168491C4B
:1053A00001607047502080F31188BFF34F8FBFF327
:1053B0006F8F0A494868401C486001280CD1084892
:1053C000006810F0FF0F07D0502080F31188BFF362
:1053D0004F8FBFF36F8FFEE770470000D4000020AF
:1053E00004ED00E00849486828B1401E486001D13A
:1053F00080F311887047502080F31188BFF34F8FDE
:10540000BFF36F8FFEE70000D400002070B50028C6
:1054100027D0144DA0F108046168E868014207D163
:10542000502080F31188BFF34F8FBFF36F8FFEE7DB
:1054300022683AB1502080F31188BFF34F8FBFF339
:105440006F8FFEE78143616000F0D4F9606869689E
:10545000084468602046FFF7B7FCBDE8704001F0E3
:1054600017B870BDBC0000204FF0E02000210161A2
:10547000816105494FF47A720968B1FBF2F1491E66
:1054800041610721016170476400002010B5FAF7FF
:10549000D9FE114910280ED300F1E02090F8F00356
:1054A0000A78904207D2502080F31188BFF34F8FC3
:1054B000BFF36F8FFEE709480068896800F4E06079
:1054C000884207D9502080F31188BFF34F8FBFF374
:1054D0006F8FFEE710BD0000D40000200CED00E04F
:1054E00010B5084B002200BF53F832401CB1521CCB
:1054F000082AF9D310BD43F8321003EBC20148600B
:1055000010BD00005C02002070B515460E46044632
:10551000FFF748FF94F944100020491C01D184F89A
:10552000440094F94510491C01D184F84500FFF767
:1055300059FFA06B28B92A46314604F1240000F037
:1055400051F82046BDE87040FFF7D8BD10B5020005
:1055500014D00F48806B38B1502080F31188BFF30E
:105560004F8FBFF36F8FFEE700F044F90021104624
:10557000FFF72CFA00F08CFF002807D105494FF007
:1055800080500860BFF34F8FBFF36F8F10BD0000D6
:105590006800002004ED00E002498A6A026049695F
:1055A000416070476800002001490120486270474F
:1055B0006800002010B50C4650B10949096818313F
:1055C000FFF7CCFE2046BDE810400121FFF7FEB9F1
:1055D000502080F31188BFF34F8FBFF36F8FFEE72A
:1055E0006800002070B514460D4668B10A49096884
:1055F0001831FFF7CBFE0CB14FF0FF35214628469E
:10560000BDE87040FFF7E2B9502080F31188BFF386
:105610004F8FBFF36F8FFEE76800002010B5144670
:10562000030011D01048826BB2B1026841F0004112
:105630009161016818461831FFF7A8FE2046BDE8C1
:1056400010400121FFF7C2B9502080F31188BFF349
:105650004F8FBFF36F8FFEE7502080F31188BFF3A9
:105660004F8FBFF36F8FFEE76800002070B5040016
:105670003ED0226DA2B1E06C884200D30146E06AC0
:10568000884235D0012A33D11A4D2A6894420FD16D
:10569000502080F31188BFF34F8FBFF36F8FFEE769
:1056A000502080F31188BFF34F8FBFF36F8FFEE759
:1056B000E162A269002A02DBC1F13801A1610E4E4C
:1056C00000EB8000616906EB8000814210D1201D53
:1056D000FFF7FEFDE06AA969884200D9A86100EBE6
:1056E000800006EB8000211DBDE87040FFF74EBE34
:1056F00070BD0000680000209C02002070B5194DAC
:10570000AA6BF2B141F000410160C4680CB3FFF72D
:10571000DFFD201DFFF7DCFDE06AA969884200D9A2
:10572000A861114900EB800001EB8000211DFFF70B
:105730002DFEE06A2968C96A884201D901206862A1
:1057400070BD502080F31188BFF34F8FBFF36F8F70
:10575000FEE7502080F31188BFF34F8FBFF36F8FA8
:10576000FEE70000680000209C02002030B587B0F2
:105770000024039405AA04A903A80494FFF7C8FD14
:10578000DDE903010094CDE90110002315A11748BC
:10579000059A00F026FD164D002868631FD000F022
:1057A000F3FE012809D0401C19D1502080F3118844
:1057B000BFF34F8FBFF36F8FFEE7502080F3118848
:1057C000BFF34F8FBFF36F8F4FF0FF30286301207F
:1057D000E8616C6107B0BDE8304000F02FB907B058
:1057E00030BD000049444C4500000000654C0008F5
:1057F000680000200248816B491C816370470000EB
:1058000068000020164810B5816B11B1012141627A
:1058100010BD002141628169124A01E0B9B1491EFF
:1058200001EB810352F82330002BF7D001EB810309
:1058300002EB830202F1080453685B685360A342E1
:1058400001D15B685360DA680260816110BD50204D
:1058500080F31188BFF34F8FBFF36F8FFEE7000017
:10586000680000209C0200200348C178491CC170D8
:105870000179491C017170470000002070B520209B
:10588000FFF772FC040005D00025201D2560FFF7FE
:1058900057FD2577204670BD2DE9F0410027884649
:1058A00004000AD05FEA18600FD0502080F31188FE
:1058B000BFF34F8FBFF36F8FFEE7502080F3118847
:1058C000BFF34F8FBFF36F8FFEE7261D04F10C056A
:1058D000FFF790FF2168F06841EA0801216017E0B6
:1058E000D0E9001601F07F425301236821F07F4187
:1058F00002D40B4203D10AE031EA030307D1D201FB
:1059000000D50F43216841F00071FFF7F7FE3046E4
:10591000A842E5D12068B843206000F0B9FD2068B6
:10592000BDE8F08113460A460146014800F090BEEA
:105930003D5300082DE9F0479A46DDF82090904647
:105940000D4604004FF0000709D0280E0FD050205C
:1059500080F31188BFF34F8FBFF36F8FFEE75020A6
:1059600080F31188BFF34F8FBFF36F8FFEE71DB138
:1059700000F062FC40B112E0502080F31188BFF3C8
:105980004F8FBFF36F8FFEE7B9F1000F07D05020A4
:1059900080F31188BFF34F8FBFF36F8FFEE7FFF7E0
:1059A00029FF2668524629463046FFF78BFB30B167
:1059B000B8F1000F1AD02068A843206016E0B9F1B2
:1059C000000F13D0B8F1000F01D04FF08077BAF17B
:1059D000000F01D047F0806745EA07014A46201DC5
:1059E000FFF71CFE00F054FD18B10AE000F050FD76
:1059F0001FE011494FF080500860BFF34F8FBFF395
:105A00006F8FFFF779FC0646800110D4FFF7CAFCC0
:105A10002668524629463046FFF754FB28B1B8F1B4
:105A2000000F02D02068A8432060FFF7DBFC26F0BF
:105A30007F463046BDE8F08704ED00E01CB52649FE
:105A400008780190FF20087008788DF800009DF814
:105A500000009DF8002000F0F000904207D0502098
:105A600080F31188BFF34F8FBFF36F8FFEE79DF870
:105A700000001A4B00F0500018700720986005E0F5
:105A80009DF8002052008DF80020401E9DF8002057
:105A90001206F5D49860032807D0502080F31188AF
:105AA000BFF34F8FBFF36F8FFEE74FF440709860E6
:105AB000019808700A48016841F4700101600168AA
:105AC00041F070410160FFF7CFFC00205860FAF709
:105AD00083FB00201CBD000000E400E0D400002097
